:100000000C945C000C9434000C9434000C94340078
:100010000C9434000C9434000C9434000C94340090
:100020000C9434000C9434000C9434000C94340080
:100030000C9434000C9435000C9434000C9434006F
:100040000C9434000C9434000C9434000C94340060
:100050000C9434000C9434000C9434000C94340050
:100060000C9434000C9434001895BFC11895414F7E
:1000700053205374617274696E672075702E2E2E32
:100080000D0A0048656C6C6F20576F726C64210D0F
:100090000A0048656C6C6F20576F696C64210D0A0B
:1000A00000000591003039F02090C00025FEFCCF03
:1000B0000093C600F6CF0895112415BE01E01FE19C
:1000C0000EBF1DBF85E08093810081E080936F00AB
:1000D0002CD0EEE6F0E0E5DFE2EAF1E01127119343
:1000E000119336D0F89406BB20E03FEF20938400B4
:1000F000309385002093A8012093A9012093A401A7
:100100002093A5012093A6012093A70121E020932D
:10011000AA01B09BFECF06BB20E93FEF20938400ED
:1001200030938500332432C2FFCF07E610E00093FE
:10013000C4001093C50008E90093C10006E00093D5
:10014000C20000E00093C00000E00093BB010895EE
:10015000E0E2F1E000E00193019301930193019348
:1001600001930193019301930193019303E010E044
:100170000193119307E010E50695179511930193EC
:1001800000E00193E0EAF1E001E00083E1EAF1E060
:1001900000E00083EBEAF1E01127103119F013952C
:1001A0000193FBCF0895E22DF32D5FEFAFBE78945E
:1001B0000895F894AFB62E2E3F2EE0EAF1E040808D
:1001C000552408E040FE05C053944694501659F358
:1001D000F9CF5F925FD0F8945F90FF24FE16FF0680
:1001E00011F30DE3E00FFF1DEE2EFF2EE0E2F1E034
:1001F00000E18824059DE00DF81D00E001930193C6
:10020000019301930193019301930193019301934E
:100210000193F192E192022D132D069517951193FA
:10022000019300E001930DB71EB7EDBEFEBE24E0C2
:1002300030EE269537954F914F913F932F930DBFF9
:100240001EBFE0EAF1E0408001E06624651419F089
:10025000000F6394FBCF402A4082E22DF32D552DF1
:10026000AFBEC3C0F8944FB66090A001112701E063
:10027000151719F0000F1395FBCF009560226092BF
:10028000A0017090A101571519F04FBE7894089500
:100290004FBEABC0F8944FB60F921F923091A2019F
:1002A0004091A301552400E130FF06C053944695C8
:1002B00037955016F1F0F8CF01E010E02227251510
:1002C00019F02395000F111F3091A2014091A30155
:1002D000302B412B3093A2014093A301E0E0F5E0E5
:1002E00000E4509EE00DF11D1F900F904FBE7894DA
:1002F0000895E0E0F0E01F900F904FBE1895F8943D
:100300000F921F922E2E3F2E4FB6EBEAF1E0509047
:10031000A10102E0509EE00DF11D9193A193E22D09
:10032000F32D1F900F904FBE60C0F8944FB6009110
:10033000BB011091A101011779F0003029F410934D
:10034000BB014FBE7894089503E01AE20695179515
:100350001F930F934FBE49C04FBE78940895F894F1
:100360004FB60091BB011091A101011719F40027AC
:100370000093BB014FBE78940895F8944FB6009156
:10038000BB011091A101011771F42090C00025FE5E
:1003900006C09093C60050E04FBE7894089551E097
:1003A0004FBE7894089551E04FBE78940895F89424
:1003B0004FB60091BB011091A101011779F4209073
:1003C000C00027FE06C05091C60060E04FBE789482
:1003D0000895552761E04FBE78940895552762E04F
:1003E0004FBE789408956FBE18956FB60091AA011C
:1003F0000130C9F74E2E5F2E2DB73EB70FE111E049
:100400000DBF1EBF2F933F930F921F926F92652EC9
:1004100077240091A8011091A9012091A4013091A5
:10042000A5014091A6015091A701200F311F471D42
:10043000571D562DEBEAF1E07724219131912017D9
:10044000310708F003C02227332702C0201B310BDD
:100450006624E250F6092193319348E073947416B0
:1004600061F7E1EAF1E00081202EE0EAF1E010819D
:1004700020E0201719F023951695FBCF03951695CC
:10048000083021F40027E0EAF1E0108110FFF6CFF8
:10049000EBEAF1E042E0049FE00DF11D40E0219124
:1004A00031912417340751F7302E3092A101E42DF9
:1004B000F52D01E006BB20E03FEF20938400309350
:1004C00085002FEF30E02093A8013093A9016F90B1
:1004D0006FBE1F900F903F912F912DBF3EBF18C050
:1004E000F8940091BB011091A101011719F400E0EB
:1004F0000093BB012091A001FF2401E0F11619F047
:10050000000FF394FBCF009520232093A0016DCF23
:100510009FB64F905F906E2E7F2EE0E2F1E000E1FB
:100520008824029DE00DF81D51936193719381938E
:100530009193A193B193C193D193619271920EB7AC
:100540001DB701931193519241929192E0E2F1E033
:1005500000E18824039DE00DF81D51916191719196
:1005600081919191A191B191C191D191619071903D
:10057000019111910EBF1DBF5190419091900000CB
:10058000E62DF72D5F924F929FBE1895E0E2F1E0C5
:1005900000E18824039DE00DF81D51916191719156
:1005A00081919191A191B191C191D19161907190FD
:1005B000019111910EBF1DBF51904190E62DF72D75
:1005C0005F924F92789418955F939F939591903096
:1005D00039F00E94BD015130E1F35230D1F3F6CF32
:1005E0009F915F9108955F930E94BD015030E1F7A4
:1005F0005F9108956F930E94D701603009F0FBCF9F
:100600006F910895EF93FF93CF93DF93BF93AF93D1
:100610005527A591B991AB1731F4A517B50709F086
:10062000F8CF50E002C051E000C0AF91BF91DF9120
:10063000CF91FF91EF910895EF93FF93CF93DF93C5
:10064000BF93AF9355275395A591B991AB1741F43B
:10065000A517B50719F0591709F0F5CF50E002C0FA
:1006600051E000C0AF91BF91DF91CF91FF91EF9129
:100670000895CF93DF93EF93FF935F936F93552785
:10068000591721F0539561916993FACF6F915F915A
:10069000FF91EF91DF91CF910895259A2D9A2D9892
:1006A0009FEFAFE22CDE2D9A9FEFAFE228DE2D9870
:1006B000F7CF48656C6C6F20576F726C64210D0A20
:1006C000000000000E949501E2EBF6E00E94E402C7
:1006D0000E94AF010895000041726475696E6F2435
:1006E00020009A06C4066C09626C696E6B0068652E
:1006F0006C6C6F00706F6E67005961792120436FD9
:100700006D6D616E64206B6E6F776E0D0A00556BB8
:100710006E6F776E20636F6D6D616E640D0A0045BC
:1007200072726F723A20436F756C64206E6F742022
:10073000737461727420636F6D6D616E640D0A0075
:10074000E806EE06F4067073006B696C6C2000001E
:10075000A1DDCE2FDF2F50E0E0E1F0E0EC0FFD1F38
:10076000508302D030D0FDCFE8EDF6E02DDFEC2F46
:10077000FD2FBB273FDF5B3159F0952F9D30D9F01E
:10078000983049F0BF30B1F32EDF9193B395F2CF9B
:1007900031DF30DFEFCFB03069F3BA9524DF90E07E
:1007A000E150F90B9BE11FDF9BE51DDF91E31BDFB0
:1007B00090E519DFDFCF17DF9AE015DF90E0919326
:1007C000089554C08DC0E6E4F7E01CDF5030C9F353
:1007D000E9E4F7E095E030DF5030A1F3E0E4F7E042
:1007E0009927933091F19395A591B591EF93FF934C
:1007F000EA2FFB2F07DFFF91EF91503009F0F1CF87
:10080000CF93DF93E2EEF6E088279A95990FE90FF0
:10081000F81FD591C591EC2FFD2F0E94D9005F3FA5
:10082000DF91CF91B9F0E0E1F0E0EC0FFD1F6081C6
:10083000639560836A95660FE1E1F0E0E60FF81FCB
:10084000EC0FFD1F519391930895EEE0F7E00E94A5
:10085000E4020895EFE1F7E00E94E4020895706970
:10086000640D0A002020202020000000E0E1F0E0DC
:10087000EC0FFD1F6081EEE5F8E00E94E402E1E18B
:10088000F0E0EC0FFD1F8827861709F19191A0E396
:100890009A0F0E94F3029191EF93FF93E4E6F8E040
:1008A0000E94E402E0E4F7E07727E90FF71F959153
:1008B000A591E92FFA2F0E94E402FF91EF919DE0AC
:1008C0000E94F3029AE00E94F3028395DDCF08951F
:1008D000496E76616C6964205049440D0A0000003D
:1008E000EC2FFD2FA5E09927EA0FF91F50815053F7
:1008F0005830A0F50E943201CF93DF93E0E1F0E0A1
:10090000EC0FFD1FA081AF93AA95A083AF91AF9389
:10091000E1E1F0E0EC0FFD1F66276395B191B5179B
:1009200021F06A1789F0B191F8CFE150F90BCE2F81
:10093000DF2F52E0E50FF91F9F91990F660F961B6D
:1009400098DEDF91CF910895AF91DF91CF91E0E1F3
:10095000F0E0EC0FFD1FA081A395A083E0EDF8E08F
:1009600033DE0895504F4E4700000000DEDC19D002
:1009700011D0FFCF08959F939BE135DE9BE533DED9
:1009800099E331DE9BE32FDE99E32DDE98E42BDE45
:100990009F91089558E269E0EEDFE4E6F9E014DEA5
:1009A00008959F939BE11FDE9BE51DDE92E31BDE16
:0809B0009AE419DE9F910895FD
:00000001FF
